:020000040000FA
:100000000C9462000C948A000C948A000C942205D3
:100010000C9422050C9422050C948A000C948A00FE
:100020000C948A000C948A000C948A000C94660448
:100030000C948A000C948A000C948A000C948A0018
:100040000C941C040C948A000C94EA030C94C403D2
:100050000C948A000C948A000C948A000C948A00F8
:100060000C948A000C948A000000000024002700F1
:100070002A0000000000250028002B0000000000DE
:1000800023002600290004040404040404040202DA
:100090000202020203030303030301020408102007
:1000A0004080010204081020010204081020000012
:1000B0000008000201000003040700000000000027
:1000C00000002C0511241FBECFEFD8E0DEBFCDBF4E
:1000D00011E0A0E0B1E0EAE7F0E102C005900D9286
:1000E000A639B107D9F722E0A6E9B1E001C01D9217
:1000F000A138B207E1F710E0C2E6D0E004C02197D2
:10010000FE010E943508C136D107C9F70E944C068E
:100110000C943B080C940000CF92DF92EF92FF9278
:10012000DC01A03282E0B807D4F5A53BB10514F09C
:10013000A4EBB0E040917F0228E830E0241B3109B5
:1001400047FD3395220F331F220F331F6901330FF1
:10015000EE08FF084091800228E532E0241B3109B7
:1001600047FD3395220F331F220F331F032E000C40
:10017000440B550B2C193D094E095F09B7FF02C00E
:10018000B0E0A0E00E94F00724EB30E040E050E057
:100190000E94C607C20ED31EE41EF51ED601E091D2
:1001A0007E02EC3080F520917F0288E890E0821B8F
:1001B000910927FD9395880F991F880F991FA817FC
:1001C000B90784F02091800288E592E0821B9109B2
:1001D00027FD9395880F991F880F991FA817B907B6
:1001E0000CF4CD010297880F991F4FB7F8942E2F6A
:1001F00030E0F901EE0FFF1FE20FF31FEF5BFD4F41
:10020000928381834FBFFF90EF90DF90CF9008954E
:10021000AF92BF92CF92DF92EF92FF920F931F9314
:10022000CF93DF936C017B018B01040F151FEB0152
:100230005E01AE18BF08C017D10759F06991D60109
:10024000ED91FC910190F081E02DC6010995892B7B
:1002500079F7C501DF91CF911F910F91FF90EF903A
:10026000DF90CF90BF90AF900895FC01538D448DE7
:10027000252F30E0842F90E0821B930B541710F051
:10028000CF96089501970895FC01918D828D98175E
:1002900061F0A28DAE0FBF2FB11D5D968C91928D36
:1002A0009F5F9F73928F90E008958FEF9FEF089567
:1002B000FC01918D828D981731F0828DE80FF11D30
:1002C000858D90E008958FEF9FEF0895FC01918D4B
:1002D000228D892F90E0805C9F4F821B91098F7344
:1002E0009927089584EA91E00E94660121E0892B14
:1002F00009F420E0822F089580E090E0892B29F016
:100300000E94720181110C9400000895FC01A48DDB
:10031000A80FB92FB11DA35ABF4F2C91848D90E027
:1003200001968F739927848FA689B7892C93A0890A
:10033000B1898C91837080648C93938D848D981394
:1003400006C00288F389E02D80818F7D8083089527
:10035000EF92FF920F931F93CF93DF93EC0181E015
:10036000888F9B8D8C8D98131AC0E889F9898081BC
:1003700085FF15C09FB7F894EE89FF896083E889EF
:10038000F98980818370806480839FBF81E090E0E1
:10039000DF91CF911F910F91FF90EF900895F62E6E
:1003A0000B8D10E00F5F1F4F0F731127E02E8C8D08
:1003B0008E110CC00FB607FCFACFE889F98980814D
:1003C00085FFF5CFCE010E948601F1CFEB8DEC0FBA
:1003D000FD2FF11DE35AFF4FF0829FB7F8940B8F6A
:1003E000EA89FB8980818062CFCFCF93DF93EC01D4
:1003F000888D8823B9F0AA89BB89E889F9898C910D
:1004000085FD03C0808186FD0DC00FB607FCF7CFC8
:100410008C9185FFF2CF808185FFEDCFCE010E94C8
:100420008601E9CFDF91CF910895833081F028F4E0
:10043000813099F08230A9F008958730A9F0883092
:10044000C9F08430B1F4809180008F7D03C0809129
:1004500080008F7780938000089584B58F7784BD66
:10046000089584B58F7DFBCF8091B0008F77809306
:10047000B00008958091B0008F7DF9CF1F93CF9386
:10048000DF93282F30E0F901E255FF4F8491F90105
:10049000E656FF4FD491F901EA57FF4FC491CC23A0
:1004A000A9F0162F81110E941502EC2FF0E0EE0F3B
:1004B000FF1FEE58FF4FA591B4918FB7F894EC91C0
:1004C000111108C0D095DE23DC938FBFDF91CF914F
:1004D0001F910895DE2BF8CFCF93DF9390E0FC01BE
:1004E000E656FF4F24918A579F4FFC018491882341
:1004F000D1F090E0880F991FFC01E859FF4FA591BA
:10050000B491FC01EE58FF4FC591D49161110EC01A
:100510009FB7F8948C91E22FE0958E238C932881DD
:10052000E223E8839FBFDF91CF9108958FB7F894BE
:10053000EC91E22BEC938FBFF6CF3FB7F89480910C
:100540009E0190919F01A091A001B091A10126B5BB
:10055000A89B05C02F3F19F00196A11DB11D3FBFFB
:10056000BA2FA92F982F8827BC01CD01620F711DCA
:10057000811D911D42E0660F771F881F991F4A95C4
:10058000D1F708958F929F92AF92BF92CF92DF9250
:10059000EF92FF924B015C010E949D026B017C0176
:1005A0000E949D026C197D098E099F09683E734067
:1005B00081059105A8F321E0821A9108A108B108EC
:1005C00088EEC80E83E0D81EE11CF11C8114910452
:1005D000A104B10429F7FF90EF90DF90CF90BF9076
:1005E000AF909F908F900895089590E080E00895D7
:1005F000FB0101900020E9F73197AF01461B570B33
:10060000DC01ED91FC910280F381E02D0994CF9300
:10061000DF93BC0184EA91E00E94F802EC016EE1F4
:1006200071E084EA91E00E94F8028C0F9D1FDF9137
:10063000CF910895CF93DF93EC0160E08E810E940B
:100640003E0261E08E810E943E0260E08E810E9447
:100650003E028BE891E00197F1F7DF91CF91089589
:10066000CF92DF92EF92FF920F931F93CF93DF937E
:100670006C017C0187E0E80EF11CD0E0C0E0062FA1
:1006800010E0B8010C2E02C0759567950A94E2F748
:100690006170F70181917F010E943E022196C43072
:1006A000D10579F7C601DF91CF911F910F91FF908E
:1006B000EF90DF90CF900C941A03CF92DF92EF92DD
:1006C000FF920F931F93CF93DF93EC01F62E642FCD
:1006D0008C810E943E028D818F3F19F060E00E9464
:1006E0003E020F2D10E08F8584FF25C06E0187E04C
:1006F000C80ED11CF12CE12CB8010E2C02C075954E
:1007000067950A94E2F76170F60181916F010E948A
:100710003E02FFEFEF1AFF0A88E0E816F10461F7E6
:10072000CE01DF91CF911F910F91FF90EF90DF905D
:10073000CF900C941A03B80184E0759567958A955B
:10074000E1F7CE010E9430036F2DCE01DF91CF91F2
:100750001F910F91FF90EF90DF90CF900C9430039A
:1007600040E0682F86E692E00C945D0381E00E94F1
:10077000B0038BE39FE10197F1F7089541E00E94F8
:100780005D0381E090E008951F920F920FB60F92E3
:1007900011242F933F934F935F936F937F938F9386
:1007A0009F93AF93BF93EF93FF9384EA91E00E94EE
:1007B0008601FF91EF91BF91AF919F918F917F91B2
:1007C0006F915F914F913F912F910F900FBE0F90BE
:1007D0001F9018951F920F920FB60F9211242F930E
:1007E0008F939F93EF93FF93E091B401F091B50144
:1007F0008081E091BA01F091BB0182FD1BC0908124
:100800008091BD018F5F8F732091BE01821741F0EF
:10081000E091BD01F0E0EC55FE4F958F8093BD0156
:10082000FF91EF919F918F912F910F900FBE0F909D
:100830001F9018958081F4CF1F920F920FB60F92E0
:1008400011242F933F938F939F93AF93BF938091E6
:100850009A0190919B01A0919C01B0919D013091D2
:10086000990123E0230F2D3758F50196A11DB11DE5
:100870002093990180939A0190939B01A0939C01EE
:10088000B0939D0180919E0190919F01A091A00144
:10089000B091A1010196A11DB11D80939E0190937D
:1008A0009F01A093A001B093A101BF91AF919F912F
:1008B0008F913F912F910F900FBE0F901F90189521
:1008C00026E8230F0296A11DB11DD2CF1F920F92D1
:1008D0000FB60F9211242F933F934F935F936F9313
:1008E0007F938F939F93AF93BF93CF93DF93EF93B8
:1008F000FF9380919801C0916502D0E087FF24C0EA
:100900001092850010928400809198018F5F8093EF
:10091000980180919801082E000C990B8C179D0767
:1009200024F4809198018C30C4F1809184009091DE
:100930008500049680349C4908F47AC08091840034
:1009400090918500049676C080919801082E000C45
:10095000990B8C179D07C4F6E09198018E2FEE0F2E
:10096000990BFC01EE0FFF1FE80FF91FEF5BFD4F26
:10097000808186FFC9CFE09198018E2FEE0F990BF1
:10098000FC01EE0FFF1FE80FF91FEF5BFD4F8081A9
:1009900060E08F730E943E02B7CF209184003091B7
:1009A0008500E09198018E2FEE0F990BFC01EE0F60
:1009B000FF1FE80FF91FEF5BFD4F81819281820FCE
:1009C000931F9093890080938800E09198018E2F67
:1009D000EE0F990BFC01EE0FFF1FE80FF91FEF5B05
:1009E000FD4F808186FF11C0E09198018E2FEE0FA0
:1009F000990BFC01EE0FFF1FE80FF91FEF5BFD4F96
:100A0000808161E08F730E943E02FF91EF91DF9140
:100A1000CF91BF91AF919F918F917F916F915F9196
:100A20004F913F912F910F900FBE0F901F901895EF
:100A300080E49CE990938900809388008FEF8093F5
:100A40009801E3CF1F920F920FB60F9211240F90CF
:100A50000FBE0F901F901895CF93DF931092A701B0
:100A60001092A60188EE93E0A0E0B0E08093A80188
:100A70009093A901A093AA01B093AB0184E091E007
:100A80009093A5018093A40185EC90E09093B1012F
:100A90008093B00184EC90E09093B3018093B20115
:100AA00080EC90E09093B5018093B40181EC90E0EC
:100AB0009093B7018093B60182EC90E09093B901D6
:100AC0008093B80186EC90E09093BB018093BA01CB
:100AD0001092BD011092BE011092BF011092C00190
:100AE000809165028C3008F06DC091E0980F909372
:100AF000650280937E0290E0FC01EE0FFF1FE80F7D
:100B0000F91FEF5BFD4F88EB9BE09283818310928E
:100B100069021092680286E191E0909367028093E7
:100B200066028CE080936A028FEF80936B028BE009
:100B300080936C0285E080936D0284E080936E0266
:100B400083E080936F0282E08093700210927102C2
:100B50001092720210927302109274021092750237
:100B600081E08093790210927A0280E480937B0284
:100B700080E180937C0280E580937D0261E08CE0DF
:100B80000E946C0280916B028F3F19F061E00E941D
:100B90006C0261E080916C020E946C02C6E6D2E0B9
:100BA0009E01265632408091750284FD0FC084E07C
:100BB00090E021962817390764F461E08E810E9445
:100BC0006C02EECF8FEF80937E02A1CF88E090E0A1
:100BD000F0CF8BE39DE00197F1F760E080916A022E
:100BE0000E943E0260E080916C020E943E02809171
:100BF0006B028F3F19F060E00E943E028091750207
:100C000084FD34C063E086E692E00E943003CBE4CA
:100C1000D6E4CE010197F1F763E086E692E00E9408
:100C200030032197F1F763E086E692E00E943003FB
:100C300083E592E00197F1F762E086E692E00E9498
:100C400030038091750280620E94B00384E080933B
:100C500076028CE00E94B0030E94B60382E080938B
:100C6000770286E0DF91CF910C94B00380620E94FE
:100C7000B0038BE496E40197F1F7809175028062EE
:100C80000E94B00383E592E00197F1F7809175022D
:100C900080620E94B003D5CF789484B5826084BD11
:100CA00084B5816084BD85B5826085BD85B5816070
:100CB00085BD80916E00816080936E0010928100EE
:100CC00080918100826080938100809181008160A9
:100CD000809381008091800081608093800080916A
:100CE000B10084608093B1008091B00081608093F6
:100CF000B00080917A00846080937A0080917A00BD
:100D0000826080937A0080917A00816080937A007B
:100D100080917A00806880937A001092C100E091FF
:100D2000B401F091B50182E08083E091B001F091CF
:100D3000B1011082E091B201F091B3018FEC808398
:100D40001092BC01E091B801F091B90186E0808376
:100D5000E091B601F091B701808180618083E091DC
:100D6000B601F091B701808188608083E091B6017F
:100D7000F091B701808180688083E091B601F091A5
:100D8000B70180818F7D808360E089E00E946C02E2
:100D900061E087E00E946C0280917E028C3008F056
:100DA00051C061E08DE00E946C0280917E02282F8C
:100DB00030E0F901EE0FFF1FE20FF31FEF5BFD4F75
:100DC0009081907C9D60908310927F0210928002AF
:100DD0002CE0622F0E942908829FB001112430E08C
:100DE00020E0AB01420F531FFA01EE0FFF1FE40F8B
:100DF000F51FEF5BFD4F908196FD16C02F5F3F4FB3
:100E00002C30310571F781110FC01092800082E003
:100E1000809381001092850010928400B19A809195
:100E20006F00826080936F00E0917E028E2F90E0D1
:100E3000FC01EE0FFF1FE80FF91FEF5BFD4F8081F4
:100E400080648083C7EBD0E003EA10E09FE8E92EDE
:100E500090E0F92E20E0C22E20E0D22E1092A301C5
:100E60001092A201A090A201B090A3018BE5A81658
:100E7000B1045CF4C5010E948C00E5E0AE0EB11C2B
:100E8000B092A301A092A201EDCF64EF71E080E0E7
:100E900090E00E94C20290E080E00E948C00E1E0BD
:100EA000809179028111E0E0E195F0E0EA59FD4F8F
:100EB000848980680E94B00361E271E086E692E076
:100EC0000E94F80261E087E00E943E0264EF71E058
:100ED00080E090E00E94C202FE018491F801A4909B
:100EE000F701B490BB2009F43AC081110E941502A9
:100EF000EB2DF0E0EE0FFF1FE458FF4FA591B491EA
:100F00008C91A82261F160E087E00E943E026EE1D0
:100F100071E084EA91E00E94F8028EE291E00E9482
:100F2000070388E391E00E9407038FE491E00E94A9
:100F300007030E94B60360E177E280E090E00E9440
:100F4000C2020E94B603C114D10409F487CF0E94E3
:100F50007201882309F482CF0E9400007FCF6EE1E6
:100F600071E084EA91E00E94F8028EE291E00E9432
:100F7000070388E391E00E94070388E691E00E945E
:100F8000070360ED77E080E090E0A4CF052E97FBAB
:100F90001EF400940E94DD0757FD07D00E94F80759
:100FA00007FC03D04EF40C94DD0750954095309526
:100FB00021953F4F4F4F5F4F0895909580957095C5
:100FC00061957F4F8F4F9F4F08950E941A08A59FEC
:100FD000900DB49F900DA49F800D911D1124089534
:100FE000B7FF0C94E5070E94E507821B930B089559
:100FF000A1E21A2EAA1BBB1BFD010DC0AA1FBB1F1D
:10100000EE1FFF1FA217B307E407F50720F0A21B8E
:10101000B30BE40BF50B661F771F881F991F1A94FB
:1010200069F760957095809590959B01AC01BD0125
:10103000CF010895A29FB001B39FC001A39F700D7F
:10104000811D1124911DB29F700D811D1124911DD0
:101050000895991B79E004C0991F961708F0961B14
:10106000881F7A95C9F780950895EE0FFF1F0590A8
:10107000F491E02D0994F894FFCF00000000A8013E
:1010800008013501F5016601440158010000000026
:10109000BE030801F502F4020D0A0054616B6520DD
:1010A0004D65646963696E0041542B434D47463D6D
:1010B000310041542B434D47533D223031373839AD
:1010C000363533343235220D0050617469656E74E3
:1010D00020546F6B6520546865204D6564696369B1
:1010E0006E0050617469656E74204D656469636952
:1010F0006E20646964206E6F742054616B65207487
:101100006865204D65646973696E205965740000D7
:107E0000112484B714BE81FFF0D085E080938100F7
:107E100082E08093C00088E18093C10086E0809377
:107E2000C20080E18093C4008EE0C9D0259A86E02C
:107E300020E33CEF91E0309385002093840096BBD3
:107E4000B09BFECF1D9AA8958150A9F7CC24DD24C4
:107E500088248394B5E0AB2EA1E19A2EF3E0BF2EE7
:107E6000A2D0813461F49FD0082FAFD0023811F036
:107E7000013811F484E001C083E08DD089C08234E0
:107E800011F484E103C0853419F485E0A6D080C0E4
:107E9000853579F488D0E82EFF2485D0082F10E0AE
:107EA000102F00270E291F29000F111F8ED06801E7
:107EB0006FC0863521F484E090D080E0DECF843638
:107EC00009F040C070D06FD0082F6DD080E0C81688
:107ED00080E7D80618F4F601B7BEE895C0E0D1E017
:107EE00062D089930C17E1F7F0E0CF16F0E7DF06D8
:107EF00018F0F601B7BEE89568D007B600FCFDCFD4
:107F0000A601A0E0B1E02C9130E011968C91119780
:107F100090E0982F8827822B932B1296FA010C0160
:107F200087BEE89511244E5F5F4FF1E0A038BF0790
:107F300051F7F601A7BEE89507B600FCFDCF97BE46
:107F4000E89526C08437B1F42ED02DD0F82E2BD052
:107F50003CD0F601EF2C8F010F5F1F4F84911BD097
:107F6000EA94F801C1F70894C11CD11CFA94CF0C13
:107F7000D11C0EC0853739F428D08EE10CD085E9AC
:107F80000AD08FE07ACF813511F488E018D01DD067
:107F900080E101D065CF982F8091C00085FFFCCF94
:107FA0009093C60008958091C00087FFFCCF809118
:107FB000C00084FD01C0A8958091C6000895E0E648
:107FC000F0E098E1908380830895EDDF803219F02E
:107FD00088E0F5DFFFCF84E1DECF1F93182FE3DFCA
:107FE0001150E9F7F2DF1F91089580E0E8DFEE27F6
:047FF000FF270994CA
:027FFE00040479
:00000001FF
